:100000000C942A000C9447000C9447000C94470071
:100010000C9447000C9423020C9447000C94470066
:100020000C9447000C9447000C9447000C94470034
:100030000C9447000C9447000C9447000C94470024
:100040000C9447000C9447000C9447000C94470014
:100050000C94470011241FBECFE5D8E0DEBFCDBF12
:1000600011E0A0E6B0E0E6E0FCE002C005900D92F1
:10007000A230B107D9F721E0A2E0B1E001C01D92A2
:10008000AA30B207E1F70E947E000C9401060C949E
:100090000000CF93DF93EC010E949102809307014F
:1000A0008F3FD1F30E947F032FEF81EE94E0215028
:1000B00080409040E1F700C000000E9491028093D0
:1000C00008018F3FD1F30E947F032FEF81EE94E070
:1000D000215080409040E1F700C00000809107016E
:1000E000880F8056982F990F990F890F90910801CA
:1000F0009053890F8883DF91CF910895CF93DF9339
:100100001F92CDB7DEB70E9454020E94200382E402
:100110000E94D90384B38F6384BB0E94F305789453
:100120000F2EFBE7EF2EF0E0FF2EF02D0F2EFEE35B
:100130009F2EF02D1DEC0F2EFDE3AF2EF02D0F2E78
:10014000FBE3BF2EF02D0F2EF7E3CF2EF02D7E2CEC
:100150008F2C0E94B0038DE890E00E94A10361E023
:1001600082E00E94BA038BE990E00E94A1030E9402
:10017000910280930901813321F48CE08093600027
:1001800005C08233A1F788E1809360000E9491024C
:100190008F3FE1F7809160008C30C1F40E94B00382
:1001A00087EA90E00E94A1030E94910280930901D6
:1001B000813319F41092030105C08233A9F781E05D
:1001C000809303010E9491028F3FE1F70E94B003E8
:1001D00083EB90E00E94A10361E082E00E94BA03F9
:1001E000CE0101960E94490080916000883131F46F
:1001F0008981883168F48093040124C08C3041F4F3
:1002000089819FEF980F9C3018F4809304011AC0E5
:100210000E94B0038EEB90E00E94A1032FEF88EFC5
:1002200095E1215080409040E1F700C000000E941D
:10023000B00383EB90E00E94A10361E082E00E94A2
:10024000BA03CECF0E94B0038DEC90E00E94A103D0
:1002500061E082E00E94BA0385E091E00E944900DB
:100260000E94B0038AED90E00E94A10361E082E069
:100270000E94BA0386E091E00E9449000E94B00308
:10028000809160008C3059F480910301811103C08A
:1002900084E890E001C0C7010E94A10304C087EE7A
:1002A00090E00E94A10361E082E00E94BA0380EF27
:1002B00090E00E94A103109202010F2EFFE2DF2EB8
:1002C000F02D0FE10E94910280930901803309F41F
:1002D00040CF95BA60910601619F812D11248695CA
:1002E00086958695880F982F990F990F890F681B0F
:1002F00082E40E94DD038FE99FE00197F1F700C0DF
:100300000000A5BA60910601619F612D11246695D8
:100310006695669582E40E94DD038FE99FE0019770
:10032000F1F700C00000B5BA60910501619F812D11
:100330001124869586958695880F982F990F990F89
:10034000890F681B82E40E94DD038FE99FE001971B
:10035000F1F700C00000C5BA60910501619F612DF1
:10036000112466956695669582E40E94DD038FE907
:100370009FE00197F1F700C00000D5BA6091040139
:10038000619F812D1124869586958695880F982FDB
:10039000990F990F890F681B82E40E94DD038FE992
:1003A0009FE00197F1F700C0000005BB60910401D8
:1003B000619F612D112466956695669582E40E9481
:1003C000DD038FE99FE00197F1F700C00000809105
:1003D00060008C3009F076CF809104018D3020F0E0
:1003E00081E0809304012CC08C3051F5809105018F
:1003F000811126C080910601811122C080910201E5
:1004000081115FCF8091030191E0892780930301DF
:10041000909302010E94B00380910301811103C0F7
:1004200084E890E002C0872D982D0E94A10361E02E
:1004300082E00E94BA0380EF90E00E94A10341CFC6
:10044000109202013ECF1F920F920FB60F9211240D
:100450008F93809106018F5F809306018091060142
:100460008C3338F010920601809105018F5F8093E4
:100470000501809105018C3338F0109205018091BF
:1004800004018F5F8093040180916000883131F412
:1004900080910401883110F0109204018F910F9027
:1004A0000FBE0F901F90189541E060E084E40E9419
:1004B000020441E061E084E40E94020441E062E061
:1004C00084E40E94020441E063E084E40E940204A8
:1004D00040E064E084E40E94020440E065E084E4DB
:1004E0000E94020440E066E084E40E94020440E0CE
:1004F00067E084E40E94020441E064E084E40E9436
:100500005D0541E065E084E40E945D0541E066E050
:1005100084E40E945D0541E067E084E40E945D059B
:1005200008950F931F93CF93DF93CDB7DEB76097F6
:100530000FB6F894DEBF0FBECDBF80E1E1E6F0E07C
:10054000DE01119601900D928A95E1F700E041E0FD
:1005500060E084E40E94720441E061E084E40E946F
:10056000720441E062E084E40E94720441E063E0CE
:1005700084E40E94720440E0602F84E40E947204CC
:1005800010E064E0610F84E40E94E20481110DC078
:10059000E1E0F0E0EC0FFD1F84E0089FE00DF11DAD
:1005A0001124E10FF11D808107C01F5F143049F74E
:1005B0000F5F043061F68FEF60960FB6F894DEBFE0
:1005C0000FBECDBFDF91CF911F910F91089541E0F4
:1005D00060E081E40E9472048FE99FE00197F1F7E7
:1005E00000C0000040E060E081E40E9472048FE9F6
:1005F0009FE00197F1F700C000000895CF93C82F46
:10060000682F62956F7081E40E94CD0540E062E042
:1006100081E40E9472040E94E7026C2F81E40E9430
:10062000CD0540E062E081E40E9472040E94E7028E
:100630008FEC97E00197F1F700C00000CF9108958B
:100640002FEF81EE94E0215080409040E1F700C010
:10065000000041E064E081E40E94020441E065E0C2
:1006600081E40E94020441E066E081E40E94020409
:1006700041E067E081E40E94020441E060E081E43F
:100680000E94020441E061E081E40E94020441E032
:1006900062E081E40E94020440E061E081E40E94A3
:1006A000720482E00E94FE028FE19EE40197F1F75E
:1006B00000C0000088E20E94FE028FEC97E00197E4
:1006C000F1F700C000008EE00E94FE028FEC97E080
:1006D0000197F1F700C0000081E00E94FE028FE167
:1006E0009EE40197F1F700C0000086E00E94FE0240
:1006F0008FEC97E00197F1F700C000000895CF93C9
:10070000C82F682F62956F7081E40E94CD0541E08B
:1007100062E081E40E9472040E94E7026C2F81E48F
:100720000E94CD0541E062E081E40E9472040E94D3
:10073000E7028FEC97E00197F1F700C00000CF913E
:100740000895CF93DF93EC018881882331F02196BF
:100750000E947F0389918111FBCFDF91CF91089592
:1007600081E00E94FE028FE19EE40197F1F700C054
:10077000000008959FEF980F923070F49FEF960F4E
:10078000903160F4813019F42FE7260F08C08230D1
:1007900031F42FEB260F03C020E801C020E8822FA0
:1007A0000E94FE028FEC97E00197F1F700C0000075
:1007B00008956FEF0E9437050895CF93DF93CDB76B
:1007C000DEB72A970FB6F894DEBF0FBECDBF9AE012
:1007D000E1E7F0E0DE01119601900D929A95E1F7C4
:1007E000E1E0F0E0EC0FFD1FE60FF11D60810E94DB
:1007F0004A052A960FB6F894DEBF0FBECDBFDF9133
:10080000CF910895823419F118F4813439F00895A4
:100810008334B1F1843409F44CC00895413059F463
:100820002AB381E090E002C0880F991F6A95E2F731
:10083000822B8ABB08952AB381E090E002C0880F22
:10084000991F6A95E2F7809582238ABB089541300B
:1008500059F427B381E090E002C0880F991F6A9590
:10086000E2F7822B87BB089527B381E090E002C0B6
:10087000880F991F6A95E2F78095822387BB0895B8
:10088000413059F424B381E090E002C0880F991FF1
:100890006A95E2F7822B84BB089524B381E090E04F
:1008A00002C0880F991F6A95E2F78095822384BB66
:1008B0000895413059F421B381E090E002C0880FDF
:1008C000991F6A95E2F7822B81BB089521B381E0DD
:1008D00090E002C0880F991F6A95E2F78095822305
:1008E00081BB0895823419F118F4813439F00895E8
:1008F0008334B1F1843409F44CC00895413059F483
:100900002BB381E090E002C0880F991F6A95E2F74F
:10091000822B8BBB08952BB381E090E002C0880F3F
:10092000991F6A95E2F7809582238BBB0895413029
:1009300059F428B381E090E002C0880F991F6A95AE
:10094000E2F7822B88BB089528B381E090E002C0D3
:10095000880F991F6A95E2F78095822388BB0895D6
:10096000413059F425B381E090E002C0880F991F0F
:100970006A95E2F7822B85BB089525B381E090E06C
:1009800002C0880F991F6A95E2F78095822385BB84
:100990000895413059F422B381E090E002C0880FFD
:1009A000991F6A95E2F7822B82BB089522B381E0FA
:1009B00090E002C0880F991F6A95E2F78095822324
:1009C00082BB08958234D9F018F4813431F04DC0DF
:1009D000833439F18434B9F148C029B381E090E01F
:1009E000062E02C0880F991F0A94E2F730E0822396
:1009F000932302C0959587956A95E2F7089526B3EB
:100A000081E090E0062E02C0880F991F0A94E2F759
:100A100030E08223932302C0959587956A95E2F78B
:100A2000089523B381E090E0062E02C0880F991F3D
:100A30000A94E2F730E08223932302C095958795CC
:100A40006A95E2F7089520B381E090E0062E02C097
:100A5000880F991F0A94E2F730E08223932302C0A3
:100A6000959587956A95E2F7089580E00895823418
:100A700059F018F4813431F00895833439F0843416
:100A800039F008956ABB089567BB089564BB089563
:100A900061BB0895823459F018F4813431F008951F
:100AA000833439F0843439F008956BBB089568BB02
:100AB000089565BB089562BB0895823419F118F456
:100AC000813439F008958334B1F1843409F44CC091
:100AD0000895413059F42BB381E090E002C0880FB3
:100AE000991F6A95E2F7822B8BBB08952BB381E0A7
:100AF00090E002C0880F991F6A95E2F780958223E3
:100B00008BBB0895413059F428B381E090E002C0D6
:100B1000880F991F6A95E2F7822B88BB089528B346
:100B200081E090E002C0880F991F6A95E2F78095F6
:100B3000822388BB0895413059F425B381E090E0C9
:100B400002C0880F991F6A95E2F7822B85BB089532
:100B500025B381E090E002C0880F991F6A95E2F703
:100B60008095822385BB0895413059F422B381E0FA
:100B700090E002C0880F991F6A95E2F7822B82BB32
:100B8000089522B381E090E002C0880F991F6A9512
:100B9000E2F78095822382BB08956295607F82345C
:100BA00079F018F4813431F00895833479F0843485
:100BB00099F008958BB38F708BBB8BB3862B8BBB57
:100BC00088B38F7088BB88B3862B88BB85B38F7042
:100BD00085BB85B3862B85BB82B38F7082BB82B306
:100BE000682B62BB089582B5886082BD85B581603F
:100BF00085BD85B5846085BD789489B7806489BFDB
:060C00000895F894FFCFF7
:100C0600183738392F3435362A3132332D41303DB5
:100C16002B3F065B4F666D7D477F6F4D6F64653A70
:100C260020504D004D6F64653A20414D00312D3105
:100C36003268202020322D3234680043686F6F738B
:100C460065206D6F646500313D414D202020323DA9
:100C5600504D0053657420486F7572733A00496EA3
:100C660076616C69642120526574727900536574EB
:100C7600204D696E757465733A005365742053652B
:100C8600636F6E64733A00323468204D6F6465009A
:100C96005072657373203020746F205265736574CB
:020CA60000004C
:00000001FF
